:020000040800F2
:1000000000800120B9160008C5150008D3150008A6
:10001000D9150008DF150008E515000800000000EC
:100020000000000000000000000000000152000875
:10003000EB1500080000000041540008A954000816
:100040000917000809170008091700080917000810
:100050000917000809170008091700080917000800
:1000600009170008091700080917000809170008F0
:1000700009170008091700080917000809170008E0
:10008000F91500080917000809170008000000000A
:100090000000000000000000000000000917000838
:1000A000091700080D1600080917000809170008AD
:1000B00009170008091700080917000809170008A0
:1000C0000917000809170008091700080917000890
:1000D0000917000809170008211600080000000091
:1000E0000917000809170008091700080000000098
:1000F00000000000000000000000000009170008D8
:100100000000000009170008091700080917000877
:1001100000000000000000000000000000000000DF
:10012000091700080917000809170008091700082F
:100130000917000800000000000000000000000097
:100140000000000000000000000000000917000887
:1001500009170008091700080917000809170008FF
:10016000091700080917000800000000000000003F
:10017000000000000000000000000000000000007F
:100180000000000009170008000000000000000047
:040190000917000843
:1001A00010B5054C237833B9044B13B10448AFF3B1
:1001B00000800123237010BDE0010020000000003A
:1001C000A073000808B5034B1BB103490348AFF304
:1001D000008008BD00000000E4010020A0730008BA
:1001E000034613F8012B002AFBD1181A0138704777
:1001F00081F0004102E000BF83F0004330B54FEAD8
:1002000041044FEA430594EA050F08BF90EA020F44
:100210001FBF54EA000C55EA020C7FEA645C7FEAD7
:10022000655C00F0E2804FEA5454D4EB5555B8BFFA
:100230006D420CDD2C4480EA020281EA030382EA6B
:10024000000083EA010180EA020281EA0303362DFD
:1002500088BF30BD11F0004F4FEA01314FF4801CD0
:100260004CEA113102D0404261EB410113F0004FE2
:100270004FEA03334CEA133302D0524263EB430399
:1002800094EA050F00F0A780A4F10104D5F1200E37
:100290000DDB02FA0EFC22FA05F2801841F1000192
:1002A00003FA0EF2801843FA05F359410EE0A5F166
:1002B00020050EF1200E012A03FA0EFC28BF4CF097
:1002C000020C43FA05F3C01851EBE37101F000454D
:1002D00007D54FF0000EDCF1000C7EEB00006EEB5A
:1002E0000101B1F5801F1BD3B1F5001F0CD34908E4
:1002F0005FEA30004FEA3C0C04F101044FEA44523B
:1003000012F5800F80F09A80BCF1004F08BF5FEAC1
:10031000500C50F1000041EB045141EA050130BDA1
:100320005FEA4C0C404141EB010111F4801FA4F144
:100330000104E9D191F0000F04BF01460020B1FA99
:1003400081F308BF2033A3F10B03B3F120020CDAD1
:100350000C3208DD02F1140CC2F10C0201FA0CF0AF
:1003600021FA02F10CE002F11402D8BFC2F1200C14
:1003700001FA02F120FA0CFCDCBF41EA0C019040CA
:10038000E41AA2BF01EB0451294330BD6FEA040413
:100390001F3C1CDA0C340EDC04F11404C4F12002FE
:1003A00020FA04F001FA02F340EA030021FA04F310
:1003B00045EA030130BDC4F10C04C4F1200220FA67
:1003C00002F001FA04F340EA0300294630BD21FAA5
:1003D00004F0294630BD94F0000F83F4801306BF6B
:1003E00081F480110134013D4EE77FEA645C18BF5F
:1003F0007FEA655C29D094EA050F08BF90EA020FF6
:1004000005D054EA000C04BF1946104630BD91EAED
:10041000030F1EBF0021002030BD5FEA545C05D1F0
:100420004000494128BF41F0004130BD14F580042F
:100430003CBF01F5801130BD01F0004545F0FE41A3
:1004400041F470014FF0000030BD7FEA645C1ABFD8
:10045000194610467FEA655C1CBF0B46024650EA0F
:10046000013406BF52EA033591EA030F41F400213B
:1004700030BD00BF90F0000F04BF0021704730B5C1
:100480004FF4806404F132044FF000054FF0000196
:1004900050E700BF90F0000F04BF0021704730B557
:1004A0004FF4806404F1320410F0004548BF40422C
:1004B0004FF000013EE700BF42004FEAE2014FEA81
:1004C00031014FEA02701FBF12F07F4393F07F4F5C
:1004D00081F06051704732F07F4208BF704793F05F
:1004E0007F4F04BF41F40021704730B54FF4607472
:1004F00001F0004521F000411CE700BF50EA010275
:1005000008BF704730B54FF000050AE050EA01021D
:1005100008BF704730B511F0004502D5404261EB8D
:1005200041014FF4806404F132045FEA915C3FF4CE
:10053000D8AE4FF003025FEADC0C18BF03325FEA6B
:10054000DC0C18BF033202EBDC02C2F1200300FA1C
:1005500003FC20FA02F001FA03FE40EA0E0021FA41
:1005600002F11444BDE600BF70B54FF0FF0C4CF42F
:10057000E06C1CEA11541DBF1CEA135594EA0C0FE1
:1005800095EA0C0F00F0DEF82C4481EA030621EA1C
:100590004C5123EA4C5350EA013518BF52EA033557
:1005A00041F4801143F4801338D0A0FB02CE4FF009
:1005B0000005E1FB02E506F00042E0FB03E54FF039
:1005C0000006E1FB03569CF0000F18BF4EF0010E31
:1005D000A4F1FF04B6F5007F64F5407404D25FEA2D
:1005E0004E0E6D4146EB060642EAC62141EA5551E0
:1005F0004FEAC52040EA5E504FEACE2EB4F1FD0C22
:1006000088BFBCF5E06F1ED8BEF1004F08BF5FEA9F
:10061000500E50F1000041EB045170BD06F0004651
:1006200046EA010140EA020081EA0301B4EB5C04FE
:10063000C2BFD4EB0C0541EA045170BD41F48011F6
:100640004FF0000E013C00F3AB8014F1360FDEBF1B
:10065000002001F0004170BDC4F10004203C35DAF7
:100660000C341BDC04F11404C4F1200500FA05F37A
:1006700020FA04F001FA05F240EA020001F000421B
:1006800021F0004110EBD37021FA04F642EB060191
:100690005EEA430E08BF20EAD37070BDC4F10C04BB
:1006A000C4F1200500FA04F320FA05F001FA04F27F
:1006B00040EA020001F0004110EBD37041F100016B
:1006C0005EEA430E08BF20EAD37070BDC4F1200576
:1006D00000FA05F24EEA020E20FA04F301FA05F2DE
:1006E00043EA020321FA04F001F0004121FA04F286
:1006F00020EA020000EBD3705EEA430E08BF20EA56
:10070000D37070BD94F0000F0FD101F0004640008F
:1007100041EB010111F4801F08BF013CF7D041EA11
:10072000060195F0000F18BF704703F00046520015
:1007300043EB030313F4801F08BF013DF7D043EAE6
:100740000603704794EA0C0F0CEA135518BF95EA9C
:100750000C0F0CD050EA410618BF52EA4306D1D123
:1007600081EA030101F000414FF0000070BD50EA42
:10077000410606BF1046194652EA430619D094EACC
:100780000C0F02D150EA013613D195EA0C0F05D1B6
:1007900052EA03361CBF104619460AD181EA03010A
:1007A00001F0004141F0FE4141F470014FF00000C2
:1007B00070BD41F0FE4141F4780170BD70B54FF05D
:1007C000FF0C4CF4E06C1CEA11541DBF1CEA1355DD
:1007D00094EA0C0F95EA0C0F00F0A7F8A4EB0504BF
:1007E00081EA030E52EA03354FEA013100F08880B6
:1007F0004FEA03334FF0805545EA131343EA12637F
:100800004FEA022245EA111545EA10654FEA002633
:100810000EF000419D4208BF964244F1FD0404F5EC
:10082000407402D25B084FEA3202B61A65EB030548
:100830005B084FEA32024FF480104FF4002CB6EB05
:10084000020E75EB030E22BFB61A754640EA0C0085
:100850005B084FEA3202B6EB020E75EB030E22BFC5
:10086000B61A754640EA5C005B084FEA3202B6EB06
:10087000020E75EB030E22BFB61A754640EA9C00C5
:100880005B084FEA3202B6EB020E75EB030E22BF95
:10089000B61A754640EADC0055EA060E18D04FEA53
:1008A000051545EA16754FEA06164FEAC30343EAF3
:1008B00052734FEAC2025FEA1C1CC0D111F4801FC0
:1008C0000BD141EA00014FF000004FF0004CB6E7B9
:1008D00011F4801F04BF01430020B4F1FD0C88BF58
:1008E000BCF5E06F3FF6AFAEB5EB030C04BFB6EB63
:1008F000020C5FEA500C50F1000041EB045170BD56
:100900000EF0004E4EEA113114EB5C04C2BFD4EB82
:100910000C0541EA045170BD41F480114FF0000E06
:10092000013C90E645EA060E8DE60CEA135594EA82
:100930000C0F08BF95EA0C0F3FF43BAF94EA0C0F85
:100940000AD150EA01347FF434AF95EA0C0F7FF4FA
:1009500025AF104619462CE795EA0C0F06D152EA4E
:1009600003353FF4FDAE1046194622E750EA410632
:1009700018BF52EA43067FF4C5AE50EA41047FF443
:100980000DAF52EA43057FF4EBAE12E74FF0FF3CA8
:1009900006E000BF4FF0010C02E000BF4FF0010C79
:1009A0004DF804CD4FEA410C7FEA6C5C4FEA430CF2
:1009B00018BF7FEA6C5C1BD001B050EA410C0CBF41
:1009C00052EA430C91EA030F02BF90EA020F0020A3
:1009D000704710F1000F91EA030F58BF994208BF0A
:1009E00090422CBFD8176FEAE37040F001007047C7
:1009F0004FEA410C7FEA6C5C02D150EA013C07D11E
:100A00004FEA430C7FEA6C5CD6D152EA033CD3D068
:100A10005DF8040B704700BF8446104662468C4662
:100A20001946634600E000BF01B5FFF7B7FF002895
:100A300048BF10F1000F01BD4DF808EDFFF7F4FFBE
:100A40000CBF012000205DF808FB00BF4DF808ED49
:100A5000FFF7EAFF34BF012000205DF808FB00BF6C
:100A60004DF808EDFFF7E0FF94BF012000205DF88E
:100A700008FB00BF4DF808EDFFF7CEFF94BF012043
:100A800000205DF808FB00BF4DF808EDFFF7C4FF3C
:100A900034BF012000205DF808FB00BF4FEA410C85
:100AA0007FEA6C5C02D150EA013C0AD14FEA430C68
:100AB0007FEA6C5C02D152EA033C02D14FF00000A5
:100AC00070474FF0010070474FEA410212F50012E3
:100AD00015D211D56FF47873B3EB625212D94FEA85
:100AE000C12343F0004343EA505311F0004F23FA6F
:100AF00002F018BF404270474FF00000704750EAC4
:100B0000013005D111F0004008BF6FF00040704780
:100B10004FF00000704700BF53B94AB9002908BF21
:100B200000281CBF4FF0FF314FF0FF3000F072B9CA
:100B3000ADF1080C6DE904CE00F006F8DDF804E034
:100B4000DDE9022304B070472DE9F047089E044612
:100B50008846002B4BD18A42154667D9B2FA82F2F9
:100B60004AB1C2F1200701FA02F320FA07F79540D3
:100B700047EA030894404FEA154E230CB8FBFEF7F2
:100B80001FFA85FC0EFB178843EA084307FB0CF1AC
:100B9000994209D9EB1807F1FF3080F01B81994287
:100BA00040F21881023F2B445B1AA4B2B3FBFEF063
:100BB0000EFB103344EA034400FB0CFCA44509D9A6
:100BC0002C1900F1FF3380F00781A44540F2048125
:100BD00002382C4440EA0740A4EB0C0400271EB165
:100BE000D4400023C6E900433946BDE8F0878B4274
:100BF00009D9002E00F0EB800027C6E90001384635
:100C00003946BDE8F087B3FA83F7002F47D18B420E
:100C100002D3824200F2FA80841A61EB03030120BE
:100C20009846002EE0D0C6E90048DDE702B9FFDEB5
:100C3000B2FA82F2002A40F08F80491B4FEA154E2B
:100C40001FFA85F80127B1FBFEFC230C0EFB1C11DB
:100C500043EA014308FB0CF1994207D9EB180CF168
:100C6000FF3002D2994200F2CD808446591AA3B2D5
:100C7000B1FBFEF00EFB101443EA044408FB00F83D
:100C8000A04507D92C1900F1FF3302D2A04500F28C
:100C9000B6801846A4EB080440EA0C409FE7C7F171
:100CA000200CBB4022FA0CFE4EEA030E01FA07F4B8
:100CB00020FA0CF521FA0CF34FEA1E482543B3FB4A
:100CC000F8F92C0C08FB19331FFA8EFA44EA034397
:100CD00009FB0AF49C4202FA07F200FA07F10BD969
:100CE0001EEB030309F1FF3080F087809C4240F245
:100CF0008480A9F1020973441B1BADB2B3FBF8F069
:100D000008FB103345EA034400FB0AFAA24508D960
:100D10001EEB040400F1FF336BD2A24569D90238FF
:100D2000744440EA0940A0FB0289A4EB0A044C4544
:100D3000C2464B4654D351D0002E69D0B1EB0A05C0
:100D400064EB030404FA0CFCFD40FC404CEA05058E
:100D5000C6E90054002747E7C2F1200320FA03F751
:100D6000954001FA02F021FA03F34FEA154E384399
:100D7000010CB3FBFEF71FFA85F80EFB173341EAAF
:100D8000034107FB08F38B4204FA02F407D9691800
:100D900007F1FF3C2FD28B422DD9023F2944CB1AB9
:100DA00081B2B3FBFEF00EFB103341EA034100FBBE
:100DB00008F38B4207D9691800F1FF3C17D28B4228
:100DC00015D902382944C91A40EA07473BE7374694
:100DD000304609E70746E7E61846FBE64145ABD251
:100DE000B8EB020A69EB0E0201381346A4E760462D
:100DF000E9E7184695E76746D1E781467CE7023880
:100E00002C4447E7ACF1020C2B442FE7384608E7A7
:100E10003746E9E6704700BF80B485B000AFF860A0
:100E2000B9607A60FB68074A1A60BB68064A1A60B4
:100E30007B6880221A6000BF1437BD465DF8047BD2
:100E4000704700BFFC01002050020020B0B588B000
:100E500000AF00F05BFC00F023F800F04BF900F06D
:100E600029F900F07DF800F0FBF800F0CBF80A4B10
:100E70003C1D1D460FCD0FC495E8070084E8070010
:100E80003B1D0021184603F032FB0246034B1A605B
:100E900003F026FBFEE700BFC4730008AC4100204E
:100EA00080B594B000AF07F120033022002118462E
:100EB00004F053FD07F10C0300221A605A609A6097
:100EC000DA601A610023BB60234B1B6C224A43F09B
:100ED00080531364204B1B6C03F08053BB60BB68D2
:100EE00000237B601D4B1B6823F440431B4A43F4E3
:100EF00000431360194B1B6803F440437B607B681D
:100F000002233B620123FB6210233B630023BB638C
:100F100007F12003184601F05DFD0346002B01D0C8
:100F200000F094F90F23FB6000233B6100237B61F9
:100F30000023BB610023FB6107F10C03002118466D
:100F400001F0B8FF0346002B01D000F07FF900BF8D
:100F50005037BD4680BD00BF0038024000700040E1
:100F600080B584B000AF3B4600221A605A609A6098
:100F7000DA60214B214A1A601F4B00225A601E4B37
:100F800000229A601C4B00221A611B4B00221A7629
:100F9000194B002283F82020174B0022DA62164BEF
:100FA000174A9A62144B0022DA60134B0122DA616D
:100FB000114B002283F830200F4B01225A610E485A
:100FC00000F0E6FB0346002B01D000F03FF90623BA
:100FD0003B6001237B600023BB603B46194606480B
:100FE00000F01AFC0346002B01D000F02FF900BFDF
:100FF0001037BD4680BD00BF644200200020014084
:101000000100000F80B500AF124B134A1A60114B5C
:10101000124A5A600F4B00229A600E4B0022DA608F
:101020000C4B4FF480421A610A4B00225A61094B63
:1010300000229A61074B0022DA61064B00221A62F5
:10104000044801F08FFB0346002B01D000F0FEF8AE
:1010500000BF80BD10420020005C0040A08601005F
:1010600080B500AF114B124A1A60104B4FF4165264
:101070005A600E4B00229A600C4B0022DA600B4B38
:1010800000221A61094B0C225A61084B00229A6116
:10109000064B0022DA61054802F028FB0346002BCC
:1010A00001D000F0D3F800BF80BD00BFB0420020E7
:1010B0000044004080B582B000AF00237B600C4B41
:1010C0001B6B0B4A43F400131363094B1B6B03F4B4
:1010D00000137B607B6800220521102000F072FE67
:1010E000102000F08BFE00BF0837BD4680BD00BF5A
:1010F0000038024080B588B000AF07F10C03002231
:101100001A605A609A60DA601A610023BB60354B3E
:101110001B6B344A43F004031363324B1B6B03F025
:101120000403BB60BB6800237B602E4B1B6B2D4A06
:1011300043F0010313632B4B1B6B03F001037B6034
:101140007B6800233B60274B1B6B264A43F002035E
:101150001363244B1B6B03F002033B603B680022CC
:1011600041F60241204801F0E3FA002240F2034137
:101170001E4801F0DDFA00224FF478711C4801F09E
:10118000D7FA41F60243FB6001233B6100237B61F8
:101190000023BB6107F10C031946134801F046F91F
:1011A00040F20343FB6001233B6100237B6100238A
:1011B000BB6107F10C0319460C4801F037F94FF4F5
:1011C0007873FB6001233B6100237B610023BB61DB
:1011D00007F10C031946064801F028F900BF203733
:1011E000BD4680BD003802400008024000000240B9
:1011F0000004024080B582B000AF78600A2301226B
:101200000349044802F0BFFA00BF0837BD4680BD5D
:1012100050040020B042002080B582B000AF78605A
:10122000012003F0B0F9FBE780B582B000AF786031
:101230007B681B68044A934201D100F089FA00BF21
:101240000837BD4680BD00BF0000014080B400AF3C
:1012500000BFBD465DF8047B7047000080B582B0DA
:1012600000AF00237B60124B5B6C114A43F4804358
:1012700053640F4B5B6C03F480437B607B680023FB
:101280003B600B4B1B6C0A4A43F080531364084BC2
:101290001B6C03F080533B603B6800220F216FF012
:1012A000010000F08FFD00BF0837BD4680BD00BFC4
:1012B0000038024080B58AB000AF786007F11403AF
:1012C00000221A605A609A60DA601A617B681B68B3
:1012D000174A934227D100233B61164B5B6C154A9A
:1012E00043F480735364134B5B6C03F480733B6172
:1012F0003B690023FB600F4B1B6B0E4A43F001035D
:1013000013630C4B1B6B03F00103FB60FB68402372
:101310007B610323BB610023FB6107F114031946C2
:10132000054801F083F800BF2837BD4680BD00BFE7
:1013300000200140003802400000024080B58AB021
:1013400000AF786007F1140300221A605A609A60B7
:10135000DA601A617B681B68294A93424BD10023EB
:101360003B61284B1B6B274A43F004031363254B57
:101370001B6B03F004033B613B690023FB60214BC3
:101380001B6B204A43F0010313631E4B1B6B03F0DE
:101390000103FB60FB684FF400737B611223BB61A8
:1013A0000123FB6103233B6204237B6207F11403E7
:1013B0001946154801F03AF84FF480737B61122307
:1013C000BB610123FB6103233B6204237B6207F1C2
:1013D000140319460D4801F029F80023BB60094B9E
:1013E0001B6C084A43F400031364064B1B6C03F4A4
:1013F0000003BB60BB6800BF2837BD4680BD00BF8F
:10140000005C00400038024000080240000002403A
:1014100080B58AB000AF786007F1140300221A602B
:101420005A609A60DA601A617B681B68344A93429A
:1014300062D100233B61334B1B6C324A43F40033CF
:101440001364304B1B6C03F400333B613B69002396
:10145000FB602C4B1B6B2B4A43F001031363294B9E
:101460001B6B03F00103FB60FB680C237B61022311
:10147000BB610023FB6103233B6207237B6207F10F
:1014800014031946204800F0D1FF204B204A1A606F
:101490001E4B4FF000625A601C4B00229A601B4B9F
:1014A0000022DA60194B4FF480621A61174B002258
:1014B0005A61164B00229A61144B4FF48072DA6124
:1014C000124B00221A62114B00225A620F4800F0A0
:1014D000A3FC0346002B01D0FFF7B8FE7B680B4A44
:1014E0005A630A4A7B68936300220521262000F094
:1014F00069FC262000F082FC00BF2837BD4680BD75
:10150000004400400038024000000240B04100208A
:101510008860024080B58CB000AF78600023FB6229
:101520000023BB6200227968192000F04BFC1920CF
:1015300000F064FC0023FB601E4B5B6C1D4A43F013
:10154000010353641B4B5B6C03F00103FB60FB68FE
:1015500007F1100207F114031146184601F076FE58
:1015600001F060FEF862FB6A134AA2FB03239B0CA6
:10157000013BBB62114B124A1A60104B40F2E7323A
:10158000DA600E4ABB6A53600C4B00221A610B4BA7
:1015900000229A60094801F08BFE0346002B04D11B
:1015A000064801F0BAFE034600E001231846303732
:1015B000BD4680BD0038024083DE1B43F042002060
:1015C0000000014080B400AF00BFBD465DF8047B61
:1015D000704780B400AFFEE780B400AFFEE780B490
:1015E00000AFFEE780B400AFFEE780B400AF00BFFD
:1015F000BD465DF8047B704780B500AF024800F03F
:10160000DBFC00BF80BD00BFB041002080B500AF53
:10161000024801F0A6FE00BF80BD00BFF0420020DE
:1016200080B500AF024802F047F900BF80BD00BF9F
:10163000B042002080B584B000AF7860114B1B68C9
:10164000002B02D10F4B104A1A600E4B1B68FB6037
:101650000C4B1A687B6813446A46934207D904F01E
:1016600047F902460C2313604FF0FF3306E0054BA9
:101670001A687B681344034A1360FB6818461037E6
:10168000BD4680BD540400203843002080B400AF24
:10169000084BD3F88830074A43F47003C2F8883007
:1016A000044B4FF000629A6000BFBD465DF8047BBA
:1016B000704700BF00ED00E0DFF834D0002103E008
:1016C0000C4B5B58435004310B480C4B42189A4268
:1016D000F6D30B4A02E0002342F8043B094B9A423E
:1016E000F9D3FFF7D3FF04F009F9FFF7AFFB704719
:1016F000008001204076000800000020E00100206A
:10170000E001002038430020FEE7000080B500AF74
:101710000E4B1B680D4A43F4007313600B4B1B68A0
:101720000A4A43F480631360084B1B68074A43F47A
:1017300080731360032000F03AFB0020FFF7EAFEFD
:10174000FFF78CFD0023184680BD00BF003C02401F
:1017500080B400AF064B1B781A46064B1B68134437
:10176000044A136000BFBD465DF8047B704700BFAC
:10177000080000203043002080B400AF034B1B68FA
:101780001846BD465DF8047B704700BF304300201B
:1017900080B584B000AF78600023FB737B68002BBA
:1017A00001D1012333E07B681B6C002B09D17868E1
:1017B000FFF780FD7B6800225A647B68002283F873
:1017C0003C207B681B6C03F01003002B18D17B6856
:1017D0001B6C23F4885323F0020343F002027B685E
:1017E0001A64786800F03AF97B6800225A647B68D2
:1017F0001B6C23F0030343F001027B681A6401E0D1
:101800000123FB737B68002283F83C20FB7B184696
:101810001037BD4680BD000080B485B000AF786051
:1018200039600023BB607B6893F83C30012B01D109
:10183000022305E17B68012283F83C203B681B689A
:10184000092B25D97B681B68D9683B681B689BB24C
:101850001A4613465B0013441E3B072202FA03F3A9
:10186000DA437B681B680A40DA607B681B68D968CA
:101870003B689A683B681B689BB2184603465B004E
:1018800003441E3B9A407B681B680A43DA6022E0EF
:101890007B681B6819693B681B689BB21A46134634
:1018A0005B001344072202FA03F3DA437B681B68E8
:1018B0000A401A617B681B6819693B689A683B6833
:1018C0001B689BB2184603465B0003449A407B6842
:1018D0001B680A431A613B685B68062B24D87B6847
:1018E0001B68596B3B685A6813469B001344053BC1
:1018F0001F2202FA03F3DA437B681B680A405A632B
:101900007B681B68596B3B681B689BB218463B6839
:101910005A6813469B001344053B00FA03F27B68A8
:101920001B680A435A634CE03B685B680C2B24D865
:101930007B681B68196B3B685A6813469B0013440D
:10194000233B1F2202FA03F3DA437B681B680A4039
:101950001A637B681B68196B3B681B689BB218464F
:101960003B685A6813469B001344233B00FA03F27A
:101970007B681B680A431A6323E07B681B68D96A8B
:101980003B685A6813469B001344413B1F2202FAEE
:1019900003F3DA437B681B680A40DA627B681B68E2
:1019A000D96A3B681B689BB218463B685A68134665
:1019B0009B001344413B00FA03F27B681B680A4317
:1019C000DA62224BFB607B681B68214A934209D193
:1019D0003B681B68122B05D1FB685B6843F48002EF
:1019E000FB685A607B681B68194A934223D13B68A5
:1019F0001B68102B03D03B681B68112B1BD1FB68A5
:101A00005B6843F40002FB685A603B681B68102B5C
:101A100011D1104B1B68104AA2FB03239A0C1346EA
:101A20009B0013445B00BB6002E0BB68013BBB60F2
:101A3000BB68002BF9D17B68002283F83C2000238F
:101A400018461437BD465DF8047B704700230140FB
:101A5000002001400000002083DE1B4380B485B0DD
:101A600000AF7860794BFB60FB685B6823F4403221
:101A7000FB685A60FB685A687B685B681A43FB68BE
:101A80005A607B681B685A687B681B6822F4807206
:101A90005A607B681B6859687B681B691A027B68FF
:101AA0001B680A435A607B681B685A687B681B681E
:101AB00022F040725A607B681B6859687B689A689C
:101AC0007B681B680A435A607B681B689A687B685E
:101AD0001B6822F400629A607B681B6899687B68C7
:101AE000DA687B681B680A439A607B689B6A584A7D
:101AF000934222D07B681B689A687B681B6822F03F
:101B000070629A607B681B6899687B689A6A7B68D8
:101B10001B680A439A607B681B689A687B681B682D
:101B200022F040529A607B681B6899687B68DA6A89
:101B30007B681B680A439A600FE07B681B689A68A1
:101B40007B681B6822F070629A607B681B689A68E9
:101B50007B681B6822F040529A607B681B689A6819
:101B60007B681B6822F002029A607B681B68996898
:101B70007B681B7E5A007B681B680A439A607B68FF
:101B800093F82030002B1BD07B681B685A687B6859
:101B90001B6842F400625A607B681B685A687B6865
:101BA0001B6822F460425A607B681B6859687B6836
:101BB0005B6A013B5A037B681B680A435A6007E073
:101BC0007B681B685A687B681B6822F400625A6055
:101BD0007B681B68DA6A7B681B6822F47002DA6231
:101BE0007B681B68D96A7B68DB69013B1A057B68E7
:101BF0001B680A43DA627B681B689A687B681B680B
:101C000022F400729A607B681B6899687B6893F87D
:101C100030305A027B681B680A439A607B681B68F5
:101C20009A687B681B6822F480629A607B681B68F4
:101C300099687B685B699A027B681B680A439A60B3
:101C400000BF1437BD465DF8047B70470023014098
:101C50000100000F80B485B000AF78607B6803F0AE
:101C60000703FB600C4BDB68BB60BA684FF6FF03F1
:101C70001340BB60FB681A02BB68134343F0BF63A9
:101C800043F40033BB60044ABB68D36000BF143721
:101C9000BD465DF8047B704700ED00E080B400AF06
:101CA000044BDB681B0A03F007031846BD465DF8CA
:101CB000047B704700ED00E080B483B000AF0346C2
:101CC000FB7197F90730002B0BDBFB7903F01F0248
:101CD000074997F907305B09012000FA02F241F841
:101CE000232000BF0C37BD465DF8047B704700BF62
:101CF00000E100E080B483B000AF03463960FB71BF
:101D000097F90730002B0ADB3B68DAB20C4997F9E8
:101D100007301201D2B20B4483F800230AE03B687B
:101D2000DAB20849FB7903F00F03043B1201D2B287
:101D30000B441A7600BF0C37BD465DF8047B704734
:101D400000E100E000ED00E080B489B000AFF86091
:101D5000B9607A60FB6803F00703FB61FB69C3F1BC
:101D60000703042B28BF0423BB61FB690433062B44
:101D700002D9FB69033B00E000237B614FF0FF3297
:101D8000BB6902FA03F3DA43BB681A407B699A40E5
:101D90004FF0FF317B6901FA03F3D9437B680B40B5
:101DA000134318462437BD465DF8047B704780B561
:101DB00082B000AF78607868FFF74CFF00BF08374B
:101DC000BD4680BD80B586B000AF0346B9607A607D
:101DD000FB7300237B61FFF761FF78617A68B96864
:101DE0007869FFF7B1FF024697F90F3011461846A0
:101DF000FFF780FF00BF1837BD4680BD80B582B0B9
:101E000000AF0346FB7197F907301846FFF754FF00
:101E100000BF0837BD4680BD80B586B000AF786092
:101E200000237B61FFF7A8FC38617B68002B01D1A0
:101E3000012399E07B68002283F834207B6802222A
:101E400083F835207B681B681A687B681B6822F062
:101E500001021A600FE0FFF78FFC02463B69D31ABC
:101E6000052B08D97B6820225A657B68032283F8FA
:101E70003520032378E07B681B681B6803F00103AF
:101E8000002BE8D17B681B681B687B617A69384B43
:101E900013407B617B685A687B689B681A437B6848
:101EA000DB681A437B681B691A437B685B691A43CA
:101EB0007B689B691A437B68DB691A437B681B6AF2
:101EC00013437A6913437B617B685B6A042B07D1F8
:101ED0007B68DA6A7B681B6B13437A6913437B6107
:101EE0007B681B687A691A607B681B685B697B6129
:101EF0007B6923F007037B617B685B6A7A69134324
:101F00007B617B685B6A042B17D17B689B6A7A696B
:101F100013437B617B68DB6A002B0ED0786800F08E
:101F20000BFA0346002B08D07B6840225A657B6879
:101F3000012283F83520012316E07B681B687A694B
:101F40005A61786800F0C2F90346FB607B68DB6D7C
:101F50003F229A40FB689A607B6800225A657B6842
:101F6000012283F83520002318461837BD4680BD6E
:101F70003F8010F080B483B000AF78607B6893F846
:101F80003530DBB2022B04D07B6880225A650123F6
:101F90000CE07B68052283F835207B681B681A6893
:101FA0007B681B6822F001021A60002318460C3778
:101FB000BD465DF8047B704780B586B000AF7860A1
:101FC0000023BB60924B1B68924AA2FB03239B0A2F
:101FD0007B617B689B6D3B613B691B68FB607B6839
:101FE000DB6D08229A40FB681340002B1AD07B68F7
:101FF0001B681B6803F00403002B13D07B681B686D
:102000001A687B681B6822F004021A607B68DB6D2B
:1020100008229A403B699A607B685B6D43F001023D
:102020007B685A657B68DB6D01229A40FB68134030
:10203000002B12D07B681B685B6903F08003002BC8
:102040000BD07B68DB6D01229A403B699A607B680C
:102050005B6D43F002027B685A657B68DB6D04228E
:102060009A40FB681340002B12D07B681B681B68EA
:1020700003F00203002B0BD07B68DB6D04229A4037
:102080003B699A607B685B6D43F004027B685A652C
:102090007B68DB6D10229A40FB681340002B43D015
:1020A0007B681B681B6803F00803002B3CD07B682F
:1020B000DB6D10229A403B699A607B681B681B6845
:1020C00003F48023002B18D07B681B681B6803F483
:1020D0000023002B08D17B681B6C002B24D07B686D
:1020E0001B6C786898471FE07B689B6C002B1BD0AB
:1020F0007B689B6C7868984716E07B681B681B6858
:1021000003F48073002B07D17B681B681A687B6817
:102110001B6822F008021A607B681B6C002B03D03E
:102120007B681B6C786898477B68DB6D20229A403F
:10213000FB681340002B00F08E807B681B681B68D7
:1021400003F01003002B00F086807B68DB6D2022FB
:102150009A403B699A607B6893F83530DBB2052B77
:1021600036D17B681B681A687B681B6822F01602F0
:102170001A607B681B685A697B681B6822F08002C2
:102180005A617B681B6C002B03D17B689B6C002B16
:1021900007D07B681B681A687B681B6822F00802FE
:1021A0001A607B68DB6D3F229A403B699A607B68CE
:1021B000002283F834207B68012283F835207B6875
:1021C0001B6D002B7DD07B681B6D7868984778E08D
:1021D0007B681B681B6803F48023002B1CD07B6882
:1021E0001B681B6803F40023002B08D17B685B6C21
:1021F000002B30D07B685B6C786898472BE07B685D
:10220000DB6B002B27D07B68DB6B7868984722E07C
:1022100000000020B5814E1B7B681B681B6803F41F
:102220008073002B0FD17B681B681A687B681B6862
:1022300022F010021A607B68002283F834207B6849
:10224000012283F835207B68DB6B002B03D07B6891
:10225000DB6B786898477B685B6D002B32D07B68BE
:102260005B6D03F00103002B22D07B68052283F80D
:1022700035207B681B681A687B681B6822F00102A6
:102280001A60BB680133BB607A699A4207D37B68E6
:102290001B681B6803F00103002BF2D100E000BFB4
:1022A0007B68002283F834207B68012283F8352084
:1022B0007B68DB6C002B05D07B68DB6C786898470B
:1022C00000E000BF1837BD4680BD00BF80B485B0B8
:1022D00000AF78607B681B68DBB2103B144AA2FB3E
:1022E00003231B09FB60134AFB6813441B781A463F
:1022F0007B68DA65FB68032B09D97B681B6823F4CC
:102300007F7323F003031A1D7B689A6507E07B68DF
:102310001B6823F47F7323F003037A6893657B685B
:102320009B6D18461437BD465DF8047B704700BFAF
:10233000ABAAAAAA0074000880B485B000AF786088
:102340000023FB737B689B6ABB607B689B69002BE7
:102350001FD1BB68032B55D801A252F823F000BF50
:102360007123000883230008712300080524000856
:102370007B68DB6A03F08073002B45D00123FB737D
:1023800042E07B68DB6AB3F1C07F3FD10123FB737E
:102390003CE07B689B69B3F5005F21D1BB68032BF0
:1023A00036D801A252F823F0B9230008BF23000851
:1023B000B9230008D12300080123FB732FE07B68B9
:1023C000DB6A03F08073002B24D00123FB7321E030
:1023D0007B68DB6AB3F1C07F1ED10123FB731BE076
:1023E000BB68022B02D9032B03D018E00123FB7337
:1023F00015E07B68DB6A03F08073002B0ED00123AD
:10240000FB730BE000BF0AE000BF08E000BF06E07E
:1024100000BF04E000BF02E000BF00E000BFFB7BA4
:1024200018461437BD465DF8047B704780B489B008
:1024300000AF7860396000237B6100233B6100239B
:10244000BB610023FB6159E10122FB6902FA03F33E
:102450007B613B681B687A6913403B613A697B6921
:102460009A4240F048813B685B68012B0BD03B6887
:102470005B68022B07D03B685B68112B03D03B687D
:102480005B68122B30D17B689B68BB61FB695B008A
:10249000032202FA03F3DB43BA691340BB613B68D2
:1024A000DA68FB695B0002FA03F3BA691343BB61A4
:1024B0007B68BA699A607B685B68BB610122FB69D3
:1024C00002FA03F3DB43BA691340BB613B685B6804
:1024D0001B0903F00102FB6902FA03F3BA69134313
:1024E000BB617B68BA695A607B68DB68BB61FB696A
:1024F0005B00032202FA03F3DB43BA691340BB61BA
:102500003B689A68FB695B0002FA03F3BA691343FC
:10251000BB617B68BA69DA603B685B68022B03D0F9
:102520003B685B68122B23D1FB69DA087B680832B1
:1025300053F82230BB61FB6903F007039B000F22B5
:1025400002FA03F3DB43BA691340BB613B681A69C3
:10255000FB6903F007039B0002FA03F3BA69134314
:10256000BB61FB69DA087B680832B96943F822105D
:102570007B681B68BB61FB695B00032202FA03F303
:10258000DB43BA691340BB613B685B6803F003023D
:10259000FB695B0002FA03F3BA691343BB617B6812
:1025A000BA691A603B685B6803F08053002B00F047
:1025B000A2800023FB60564B5B6C554A43F480437A
:1025C0005364534B5B6C03F48043FB60FB68514ADC
:1025D000FB699B08023352F82330BB61FB6903F0AF
:1025E00003039B000F2202FA03F3DB43BA69134093
:1025F000BB617B68484A934219D07B68474A934243
:1026000013D07B68464A93420DD07B68454A93427B
:1026100007D07B68444A934201D1042308E0072392
:1026200006E0032304E0022302E0012300E000238C
:10263000FA6902F0030292009340BA691343BB6146
:102640003449FB699B080233BA6941F82320374BB0
:102650001B68BB613B69DB43BA691340BB613B68E4
:102660005B6803F48033002B03D0BA693B691343E2
:10267000BB612E4ABB6913602C4B5B68BB613B6935
:10268000DB43BA691340BB613B685B6803F400330A
:10269000002B03D0BA693B691343BB61234ABB6972
:1026A0005360224B9B68BB613B69DB43BA691340B3
:1026B000BB613B685B6803F48013002B03D0BA69ED
:1026C0003B691343BB61194ABB699360174BDB68D5
:1026D000BB613B69DB43BA691340BB613B685B6824
:1026E00003F40013002B03D0BA693B691343BB61A9
:1026F0000E4ABB69D360FB690133FB61FB690F2B99
:102700007FF6A2AE00BF2437BD465DF8047B70475C
:10271000003802400038014000000240000402403E
:1027200000080240000C024000100240003C014042
:1027300080B483B000AF78600B467B8013467B701B
:102740007B78002B03D07A887B689A6103E07B88D2
:102750001A047B689A6100BF0C37BD465DF8047BA4
:102760007047000080B584B000AF78607B68002BB4
:1027700001D101231FE17B6893F83D30DBB2002BD0
:1027800006D17B68002283F83C207868FEF7D6FDEE
:102790007B68242283F83D207B681B681A687B686D
:1027A0001B6822F001021A607B681B681A687B684C
:1027B0001B6842F400421A607B681B681A687B68D9
:1027C0001B6822F400421A6000F018FDF8607B6874
:1027D0005B687B4A934207D8FB687A4A934294BF6E
:1027E00001230023DBB206E0FB68774A934294BFE3
:1027F00001230023DBB2002B01D00123DBE0FB68C7
:10280000724AA2FB03239B0CBB607B681B685B685E
:1028100023F03F017B681B68BA680A435A607B68F3
:102820001B681B6A23F03F017B685B68644A934224
:1028300002D8BB68013309E0BB684FF4967202FB13
:1028400003F3634AA2FB03239B0901337A681268EE
:102850000B4313627B681B68DB6923F44F4222F051
:10286000FF027B685B6856498B420DD8FB68591E96
:102870007B685B685B00B1FBF3F30133C3F30B03CD
:10288000042B38BF04234FE07B689B68002B11D1D9
:10289000FB68581E7B6859680B465B000B44B0FB15
:1028A000F3F30133C3F30B03002B0CBF012300230D
:1028B000DBB212E0FB68581E7B6859680B469B0030
:1028C0000B4499000B44B0FBF3F30133C3F30B0348
:1028D000002B0CBF01230023DBB2002B01D001230E
:1028E00022E07B689B68002B0ED1FB68581E7B683A
:1028F00059680B465B000B44B0FBF3F30133C3F3A1
:102900000B0343F400430FE0FB68581E7B685968D3
:102910000B469B000B4499000B44B0FBF3F30133CF
:10292000C3F30B0343F44043796809681343CB6155
:102930007B681B681B6823F0C0017B68DA697B68D1
:102940001B6A1A437B681B680A431A607B681B6812
:102950009B6823F4034323F0FF037A6811697A68C4
:10296000D26811437A6812680B4393607B681B68D6
:10297000DB6823F0FF017B685A697B689B691A4317
:102980007B681B680A43DA607B681B681A687B688F
:102990001B6842F001021A607B6800221A647B689F
:1029A000202283F83D207B6800221A637B68002286
:1029B00083F83E20002318461037BD4680BD00BF77
:1029C000A08601007F841E00FF083D0083DE1B43BC
:1029D000D34D621080B586B000AF78607B68002B65
:1029E00001D101235BE27B681B6803F00103002B2C
:1029F00075D0A34B9B6803F00C03042B0CD0A04BA9
:102A00009B6803F00C03082B12D19D4B5B6803F409
:102A10008003B3F5800F0BD1994B1B6803F400338F
:102A2000002B5BD07B685B68002B57D1012336E21B
:102A30007B685B68B3F5803F06D1914B1B68904A79
:102A400043F4803313601DE07B685B68B3F5A02F0F
:102A50000CD18B4B1B688A4A43F480231360884B4C
:102A60001B68874A43F4803313600BE0844B1B6878
:102A7000834A23F480331360814B1B68804A23F41C
:102A8000802313607B685B68002B13D0FEF774FE15
:102A9000386108E0FEF770FE02463B69D31A642BEA
:102AA00001D90323FBE1764B1B6803F40033002BB1
:102AB000F0D014E0FEF760FE386108E0FEF75CFE3F
:102AC00002463B69D31A642B01D90323E7E16C4B1F
:102AD0001B6803F40033002BF0D100E000BF7B68DB
:102AE0001B6803F00203002B63D0654B9B6803F067
:102AF0000C03002B0BD0624B9B6803F00C03082BDC
:102B00001CD15F4B5B6803F48003002B16D15C4B38
:102B10001B6803F00203002B05D07B68DB68012BE8
:102B200001D00123BBE1564B1B6823F0F8027B6800
:102B30001B69DB00524913430B603AE07B68DB689A
:102B4000002B20D04F4B01221A60FEF715FE386192
:102B500008E0FEF711FE02463B69D31A022B01D9A9
:102B600003239CE1464B1B6803F00203002BF0D0CB
:102B7000434B1B6823F0F8027B681B69DB0040496C
:102B800013430B6015E03F4B00221A60FEF7F4FD83
:102B9000386108E0FEF7F0FD02463B69D31A022BCC
:102BA00001D903237BE1364B1B6803F00203002BA2
:102BB000F0D17B681B6803F00803002B30D07B68E2
:102BC0005B69002B16D0304B01221A60FEF7D4FD52
:102BD000386108E0FEF7D0FD02463B69D31A022BAC
:102BE00001D903235BE1264B5B6F03F00203002B4B
:102BF000F0D015E0244B00221A60FEF7BDFD3861CD
:102C000008E0FEF7B9FD02463B69D31A022B01D951
:102C1000032344E11A4B5B6F03F00203002BF0D156
:102C20007B681B6803F00403002B00F0A0800023E6
:102C3000FB75134B1B6C03F08053002B0FD100234B
:102C4000BB600F4B1B6C0E4A43F0805313640C4B5C
:102C50001B6C03F08053BB60BB680123FB750B4BFF
:102C60001B6803F48073002B21D1084B1B68074AB3
:102C700043F480731360FEF77FFD386111E000BFFD
:102C80000038024000004742800E4742007000407A
:102C9000FEF772FD02463B69D31A022B01D90323CA
:102CA000FDE0814B1B6803F48073002BF0D07B6840
:102CB0009B68012B06D17D4B1B6F7C4A43F00103BF
:102CC00013671CE07B689B68052B0CD1774B1B6F4F
:102CD000764A43F004031367744B1B6F734A43F047
:102CE000010313670BE0714B1B6F704A23F0010364
:102CF00013676E4B1B6F6D4A23F0040313677B68E9
:102D00009B68002B15D0FEF737FD38610AE0FEF70F
:102D100033FD02463B69D31A41F28832934201D90E
:102D20000323BCE0614B1B6F03F00203002BEED0CA
:102D300014E0FEF721FD38610AE0FEF71DFD0246B2
:102D40003B69D31A41F28832934201D90323A6E0AA
:102D5000564B1B6F03F00203002BEED1FB7D012BC2
:102D600005D1524B1B6C514A23F0805313647B688E
:102D70009B69002B00F092804C4B9B6803F00C0386
:102D8000082B5CD07B689B69022B41D1484B002209
:102D90001A60FEF7F1FC386108E0FEF7EDFC024630
:102DA0003B69D31A022B01D9032378E03F4B1B6800
:102DB00003F00073002BF0D17B68DA697B681B6A33
:102DC0001A437B685B6A9B011A437B689B6A5B08BA
:102DD000013B1B041A437B68DB6A1B063349134320
:102DE0004B60334B01221A60FEF7C6FC386108E0E5
:102DF000FEF7C2FC02463B69D31A022B01D903231A
:102E00004DE02A4B1B6803F00073002BF0D045E027
:102E1000274B00221A60FEF7AFFC386108E0FEF78E
:102E2000ABFC02463B69D31A022B01D9032336E0DF
:102E30001E4B1B6803F00073002BF0D12EE07B6863
:102E40009B69012B01D1012329E0184B5B68FB60D2
:102E5000FB6803F480027B68DB699A421CD1FB6843
:102E600003F03F027B681B6A9A4215D1FA6847F665
:102E7000C07313407A68526A93420DD1FB6803F421
:102E800040327B689B6A9A4206D1FB6803F070620D
:102E90007B68DB6A9A4201D0012300E000231846D8
:102EA0001837BD4680BD00BF0070004000380240AA
:102EB0006000474280B584B000AF786039607B68BD
:102EC000002B01D10123CCE0684B1B6803F00F03FA
:102ED0003A689A420CD9654B3A68D2B21A70634B81
:102EE0001B6803F00F033A689A4201D00123B8E04F
:102EF0007B681B6803F00203002B20D07B681B68F3
:102F000003F00403002B05D0594B9B68584A43F447
:102F1000E05393607B681B6803F00803002B05D027
:102F2000534B9B68524A43F460439360504B9B68F9
:102F300023F0F0027B689B684D4913438B607B68EC
:102F40001B6803F00103002B44D07B685B68012BF6
:102F500007D1474B1B6803F40033002B19D1012321
:102F60007FE07B685B68022B03D07B685B68032B88
:102F700007D13F4B1B6803F00073002B09D10123DD
:102F80006FE03B4B1B6803F00203002B01D10123D0
:102F900067E0374B9B6823F003027B685B6834492A
:102FA00013438B60FEF7E8FBF8600AE0FEF7E4FBF2
:102FB0000246FB68D31A41F28832934201D90323B7
:102FC0004FE02B4B9B6803F00C027B685B689B0017
:102FD0009A42EBD1254B1B6803F00F033A689A42E3
:102FE0000CD2224B3A68D2B21A70204B1B6803F005
:102FF0000F033A689A4201D0012332E07B681B68D4
:1030000003F00403002B08D0194B9B6823F4E05213
:103010007B68DB68164913438B607B681B6803F091
:103020000803002B09D0124B9B6823F460427B6895
:103030001B69DB000E4913438B6000F021F8014649
:103040000B4B9B681B0903F00F030A4AD35C21FA60
:1030500003F3094A1360094B1B681846FEF75AFA36
:10306000002318461037BD4680BD00BF003C02401B
:1030700000380240E873000800000020040000202F
:10308000F0B585B000AF00237B600023FB60002318
:103090003B600023BB60504B9B6803F00C03042B88
:1030A00007D0082B08D0002B40F08D804B4BBB6025
:1030B0008CE04B4BBB6089E0474B5B6803F03F0300
:1030C0007B60454B5B6803F48003002B23D0424BAD
:1030D0005B689B094FF0000440F2FF114FF00002C3
:1030E00003EA010504EA02063D4A02FB06F100225A
:1030F00002FB05F20A443A49A5FB0101531819469F
:103100007B684FF000041A462346FDF705FD034691
:103110000C46FB6049E0304B5B689B094FF00004B4
:1031200040F2FF114FF0000203EA010504EA020633
:10313000294632464FF000034FF00004540144EAA0
:10314000D1644B0119462246491B62EB06024FF03F
:1031500000034FF00004940144EA91648B015B1A70
:1031600064EB02044FF000014FF00002E20042EA7B
:103170005372D9000B4614465B1944EB06044FF01A
:1031800000014FF00002A20242EA935299020B465C
:103190001446184621467B684FF000041A46234621
:1031A000FDF7BAFC03460C46FB600B4B5B681B0C3F
:1031B00003F0030301335B003B60FA683B68B2FB3A
:1031C000F3F3BB6002E0054BBB6000BFBB68184671
:1031D0001437BD46F0BD00BF003802400024F400A3
:1031E00040787D0180B400AF034B1B681846BD4694
:1031F0005DF8047B704700BF0000002080B500AF81
:10320000FFF7F0FF0146054B9B689B0A03F007039D
:10321000034AD35C21FA03F3184680BD003802400C
:10322000F873000880B500AFFFF7DCFF0146054BDF
:103230009B685B0B03F00703034AD35C21FA03F39B
:10324000184680BD00380240F873000880B483B08F
:1032500000AF786039607B680F221A60124B9B6860
:1032600003F003027B685A600F4B9B6803F0F00287
:103270007B689A600C4B9B6803F4E0527B68DA60D1
:10328000094B9B68DB0803F4E0527B681A61074B2B
:103290001B6803F00F023B681A6000BF0C37BD4685
:1032A0005DF8047B704700BF00380240003C0240DC
:1032B00080B582B000AF78607B68002B01D101231C
:1032C0001DE07B6893F83D30DBB2002B06D17B68B4
:1032D000002283F83C20786800F015F87B68022211
:1032E00083F83D207B681A687B68043319461046D2
:1032F00000F068F97B68012283F83D20002318461E
:103300000837BD4680BD80B483B000AF786000BF91
:103310000C37BD465DF8047B704780B485B000AFC4
:1033200078607B681B68DA687B681B6842F0010282
:10333000DA607B681B689B6803F00703FB60FB682F
:10334000062B07D07B681B681A687B681B6842F0F5
:1033500001021A60002318461437BD465DF8047B4D
:10336000704780B582B000AF78607B681B681B69CE
:1033700003F00203022B22D17B681B68DB6803F099
:103380000203022B1BD17B681B686FF002021A61DB
:103390007B6801221A777B681B689B6903F0030333
:1033A000002B03D0786800F0EEF805E0786800F0B4
:1033B000E0F8786800F0F1F87B6800221A777B6803
:1033C0001B681B6903F00403042B22D17B681B6874
:1033D000DB6803F00403042B1BD17B681B686FF0D0
:1033E00004021A617B6802221A777B681B689B695A
:1033F00003F44073002B03D0786800F0C4F805E0B4
:10340000786800F0B6F8786800F0C7F87B680022AA
:103410001A777B681B681B6903F00803082B22D10D
:103420007B681B68DB6803F00803082B1BD17B68F3
:103430001B686FF008021A617B6804221A777B68A8
:103440001B68DB6903F00303002B03D0786800F0EE
:103450009AF805E0786800F08CF8786800F09DF83C
:103460007B6800221A777B681B681B6903F01003D6
:10347000102B22D17B681B68DB6803F01003102B34
:103480001BD17B681B686FF010021A617B680822F1
:103490001A777B681B68DB6903F44073002B03D049
:1034A000786800F070F805E0786800F062F87868F5
:1034B00000F073F87B6800221A777B681B681B6931
:1034C00003F00103012B0ED17B681B68DB6803F05E
:1034D0000103012B07D17B681B686FF001021A61A1
:1034E0007868FDF7A1FE7B681B681B6903F0800309
:1034F000802B0ED17B681B68DB6803F08003802B78
:1035000007D17B681B686FF080021A61786800F051
:10351000E3F87B681B681B6903F04003402B0ED166
:103520007B681B68DB6803F04003402B07D17B6896
:103530001B686FF040021A61786800F038F87B6809
:103540001B681B6903F02003202B0ED17B681B68CE
:10355000DB6803F02003202B07D17B681B686FF02A
:1035600020021A61786800F0ADF800BF0837BD4648
:1035700080BD80B483B000AF786000BF0C37BD461B
:103580005DF8047B704780B483B000AF786000BF03
:103590000C37BD465DF8047B704780B483B000AF44
:1035A000786000BF0C37BD465DF8047B704780B47F
:1035B00083B000AF786000BF0C37BD465DF8047B78
:1035C0007047000080B485B000AF786039607B68D8
:1035D0001B68FB607B68344A93420FD07B68B3F171
:1035E000804F0BD07B68314A934207D07B68304ACA
:1035F000934203D07B682F4A934208D1FB6823F0A3
:103600007003FB603B685B68FA681343FB607B6890
:10361000254A93421BD07B68B3F1804F17D07B685B
:10362000224A934213D07B68214A93420FD07B6891
:10363000204A93420BD07B681F4A934207D07B6895
:103640001E4A934203D07B681D4A934208D1FB680F
:1036500023F44073FB603B68DB68FA681343FB604C
:10366000FB6823F080023B685B691343FB607B6867
:10367000FA681A603B689A687B68DA623B681A6885
:103680007B689A627B68084A934203D13B681A6957
:103690007B681A637B6801225A6100BF1437BD46FC
:1036A0005DF8047B704700BF00000140000400404B
:1036B00000080040000C0040004001400044014070
:1036C0000048014080B483B000AF786000BF0C3781
:1036D000BD465DF8047B704780B483B000AF78606E
:1036E00000BF0C37BD465DF8047B704780B582B0E3
:1036F00000AF78607B68002B01D101233FE07B683D
:1037000093F83930DBB2002B06D17B68002283F8B6
:1037100038207868FDF77CFE7B68242283F8392006
:103720007B681B68DA687B681B6822F40052DA60E9
:10373000786800F041FB7B681B681A697B681B682E
:1037400022F490421A617B681B685A697B681B6887
:1037500022F02A025A617B681B68DA687B681B6862
:1037600042F40052DA607B680022DA637B68202230
:1037700083F839207B68202283F83A2000231846FA
:103780000837BD4680BD80B588B002AFF860B9602B
:103790003B601346FB8000237B61FB6893F8393064
:1037A000DBB2202B40F08380BB68002B02D0FB886B
:1037B000002B01D101237BE0FB6893F83830012B0B
:1037C00001D1022374E0FB68012283F83820FB68F2
:1037D0000022DA63FB68212283F83920FDF7CCFF51
:1037E0007861FB68FA889A84FB68FA88DA84FB6857
:1037F000002283F8382042E0FB68DB8C9BB2013B5F
:103800009AB2FB68DA84FB689B68B3F5805F22D1CB
:103810003B6800937B6900228021F86800F060F922
:103820000346002B01D0032342E0BB683B613B69A8
:103830001B881A46FB681B68C2F308025A60FB68C3
:103840001B69002B03D1BB680233BB6017E0BB6868
:103850000133BB6013E03B6800937B690022802149
:10386000F86800F03DF90346002B01D003231FE068
:10387000BB685A1CBA601A78FB681B685A60FB6800
:10388000DB8C9BB2002BB7D13B6800937B69002295
:103890004021F86800F024F90346002B01D00323EF
:1038A00006E0FB68202283F83920002300E0022391
:1038B00018461837BD4680BD80B588B000AF786027
:1038C0007B681B681B68FB617B681B68DB68BB61EE
:1038D0007B681B685B697B6100233B610023FB60A5
:1038E000FB6903F00F033B613B69002B0DD1FB69C2
:1038F00003F02003002B08D0BB6903F02003002B4A
:1039000003D0786800F0D6F9D1E03B69002B00F0D5
:10391000B0807B6903F00103002B05D1BB6903F480
:103920009073002B00F0A580FB6903F00103002BCE
:103930000AD0BB6903F48073002B05D07B68DB6B76
:1039400043F001027B68DA63FB6903F00403002B98
:103950000AD07B6903F00103002B05D07B68DB6B89
:1039600043F002027B68DA63FB6903F00203002B79
:103970000AD07B6903F00103002B05D07B68DB6B69
:1039800043F004027B68DA63FB6903F00803002B51
:103990000FD0BB6903F02003002B04D17B6903F037
:1039A0000103002B05D07B68DB6B43F008027B68CA
:1039B000DA637B68DB6B002B78D0FB6903F02003B4
:1039C000002B07D0BB6903F02003002B02D07868DE
:1039D00000F070F97B681B685B6903F04003402BC3
:1039E0000CBF01230023DBB2FB607B68DB6B03F0C1
:1039F0000803002B02D1FB68002B31D0786800F05F
:103A0000B9F87B681B685B6903F04003402B23D146
:103A10007B681B685A697B681B6822F040025A6108
:103A20007B685B6B002B13D07B685B6B214A1A654C
:103A30007B685B6B1846FEF79DFA0346002B16D099
:103A40007B685B6B1B6D7A68526B104698470EE083
:103A5000786800F03BF80AE0786800F037F806E094
:103A6000786800F033F87B680022DA631EE000BF5C
:103A70001CE0FB6903F08003002B08D0BB6903F056
:103A80008003002B03D0786800F0A6F80FE0FB69F4
:103A900003F04003002B0AD0BB6903F04003002B66
:103AA00005D0786800F0EEF800BF00E000BF2037D6
:103AB000BD4680BDB13B000880B483B000AF7860E4
:103AC00000BF0C37BD465DF8047B704780B483B0FF
:103AD00000AF786000BF0C37BD465DF8047B7047CF
:103AE00080B584B000AFF860B9603B601346FB71ED
:103AF0002CE0BB69B3F1FF3F28D0BB69002B07D096
:103B0000FDF73AFE02463B68D31ABA699A421DD2C3
:103B1000FB681B68DA68FB681B6822F4D072DA6005
:103B2000FB681B685A69FB681B6822F001025A6136
:103B3000FB68202283F83920FB68202283F83A2092
:103B4000FB68002283F8382003230FE0FB681B6822
:103B50001A68BB681340BA689A420CBF012300235D
:103B6000DBB21A46FB799A42C3D0002318461037BD
:103B7000BD4680BD80B483B000AF78607B681B68B1
:103B8000DA687B681B6822F49072DA607B681B68D5
:103B90005A697B681B6822F001025A617B68202207
:103BA00083F83A2000BF0C37BD465DF8047B7047B0
:103BB00080B584B000AF78607B689B6BFB60FB686E
:103BC0000022DA85FB680022DA84F868FFF77EFFBE
:103BD00000BF1037BD4680BD80B485B000AF7860AF
:103BE0007B6893F83930DBB2212B44D17B689B682A
:103BF000B3F5805F1AD17B681B6AFB60FB681B888A
:103C00001A467B681B68C2F308025A607B681B690E
:103C1000002B05D17B681B6A9A1C7B681A620EE038
:103C20007B681B6A5A1C7B681A6208E07B681B6A07
:103C3000591C7A6811621A787B681B685A607B6825
:103C4000DB8C9BB2013B9BB27A681946D184002B76
:103C50000FD17B681B68DA687B681B6822F08002E2
:103C6000DA607B681B68DA687B681B6842F0400298
:103C7000DA60002300E0022318461437BD465DF8E1
:103C8000047B704780B582B000AF78607B681B68AA
:103C9000DA687B681B6822F04002DA607B682022C9
:103CA00083F839207868FFF707FF002318460837A4
:103CB000BD4680BD80B584B000AF78607B6893F866
:103CC0003A30DBB2222B71D17B689B68B3F5805F01
:103CD00023D17B689B6AFB607B681B69002B0ED13C
:103CE0007B681B685B689BB2C3F308039AB2FB68EE
:103CF0001A807B689B6A9A1C7B689A6229E07B68C1
:103D00001B685B689BB2DBB29AB2FB681A807B6867
:103D10009B6A5A1C7B689A621BE07B681B69002BBC
:103D20000AD17B681B6858687B689B6A591C7A6853
:103D30009162C2B21A700CE07B681B685B68DAB2F1
:103D40007B689B6A581C7968886202F07F02D2B255
:103D50001A707B68DB8D9BB2013B9BB27A68194677
:103D6000D185002B20D17B681B68DA687B681B68D3
:103D700022F02002DA607B681B68DA687B681B68C7
:103D800022F48072DA607B681B685A697B681B6862
:103D900022F001025A617B68202283F83A20786879
:103DA000FDF728FA002302E0002300E00223184672
:103DB0001037BD4680BD00002DE9F04F85B000AF43
:103DC00078607B681B681B6923F440517B68DA6864
:103DD0007B681B680A431A617B689A687B681B6969
:103DE0001A437B685B691A437B68DB691343FB609A
:103DF0007B681B68DB6823F4164323F00C037A68A6
:103E00001268F9680B43D3607B681B685B6923F415
:103E100040717B689A697B681B680A435A617B68BA
:103E2000DB69B3F5004F40F08B817B681B68C14AAA
:103E3000934205D07B681B68BF4A934240F0BD8027
:103E4000FFF7F0F9B860BB681D464FF00006A846C2
:103E5000B14618EB080349EB09049846A14618EB54
:103E6000050849EB06094FF000014FF000024FEA48
:103E7000C90242EA58724FEAC8018846914618EBD7
:103E8000050049EB06017B685B681D464FF00006A4
:103E90006B1946EB06041A462346FCF73DFE034623
:103EA0000C461A46A54BA3FB02235B094FEA0318F5
:103EB000BB681D464FF00006A946B24619EB090340
:103EC0004AEB0A049946A24619EB05094AEB060A91
:103ED0004FF000014FF000024FEACA0242EA597265
:103EE0004FEAC9018946924619EB05004AEB0601E3
:103EF0007B685B681D464FF000066B1946EB0604B5
:103F00001A462346FCF708FE03460C461A468B4B1E
:103F1000A3FB02135B09642101FB03F3D31ADB004B
:103F20003233864AA2FB03235B095B0003F4F87378
:103F30009844BB681D464FF00006A946B24619EBEF
:103F400009034AEB0A049946A24619EB05094AEB14
:103F5000060A4FF000014FF000024FEACA0242EA9F
:103F600059724FEAC9018946924619EB05004AEB9E
:103F700006017B685B681D464FF000066B1946EB37
:103F800006041A462346FCF7C7FD03460C461A46AC
:103F90006A4BA3FB02135B09642101FB03F3D31AF1
:103FA000DB003233654AA2FB03235B0903F00702FF
:103FB0007B681B6842449A606FE2FFF71FF9B860A4
:103FC000BB681D464FF00006A846B14618EB080333
:103FD00049EB09049846A14618EB050849EB060988
:103FE0004FF000014FF000024FEAC90242EA587256
:103FF0004FEAC8018846914618EB050049EB0601D7
:104000007B685B681D464FF000066B1946EB0604A3
:104010001A462346FCF780FD03460C461A46474BDA
:10402000A3FB02235B094FEA0318BB681D464FF050
:104030000006A946B24619EB09034AEB0A04994661
:10404000A24619EB05094AEB060A4FF000014FF0B2
:1040500000024FEACA0242EA59724FEAC901894690
:10406000924619EB05004AEB06017B685B681D462A
:104070004FF000066B1946EB06041A462346FCF780
:104080004BFD03460C461A462C4BA3FB02135B095F
:10409000642101FB03F3D31ADB003233274AA2FB6E
:1040A00003235B095B0003F4F8739844BB681D4667
:1040B0004FF00006A946B24619EB09034AEB0A0481
:1040C0009946A24619EB05094AEB060A4FF0000192
:1040D0004FF000024FEACA0242EA59724FEAC901A0
:1040E0008946924619EB05004AEB06017B685B683E
:1040F0001D464FF000066B1946EB06041A46234690
:10410000FCF70AFD03460C461A460C4BA3FB0213B0
:104110005B09642101FB03F3D31ADB003233074A46
:10412000A2FB03235B0903F007027B681B68424480
:104130009A60B2E100100140001401401F85EB516C
:104140007B681B68D74A934205D07B681B68D64AB8
:10415000934240F0D180FFF765F8B860BB689A469B
:104160004FF0000BD046D94618EB080349EB090481
:104170009846A14618EB0A0849EB0B094FF00001DD
:104180004FF000024FEAC90242EA58724FEAC801F2
:10419000884691461AEB08054BEB09067B685B687D
:1041A00019464FF000024FF000034FF00004940056
:1041B00044EA91748B001A46234628463146FCF7A0
:1041C000ABFC03460C461A46B84BA3FB02235B0923
:1041D0004FEA0318BB689B464FF0000CD946E246F5
:1041E00019EB09034AEB0A049946A24619EB0B099D
:1041F0004AEB0C0A4FF000014FF000024FEACA02EE
:1042000042EA59724FEAC901894692461BEB0905F9
:104210004CEB0A067B685B6819464FF000024FF0D2
:1042200000034FF00004940044EA91748B001A4696
:10423000234628463146FCF76FFC03460C461A46D7
:104240009A4BA3FB02135B09642101FB03F3D31A0E
:104250001B013233954AA2FB03235B0903F0F003F1
:104260009844BB689B464FF0000CD946E24619EBD8
:1042700009034AEB0A049946A24619EB0B094AEBDB
:104280000C0A4FF000014FF000024FEACA0242EA66
:1042900059724FEAC901894692461BEB09054CEB5E
:1042A0000A067B685B6819464FF000024FF0000376
:1042B0004FF00004940044EA91748B001A462346A0
:1042C00028463146FCF728FC03460C461A46774B35
:1042D000A3FB02135B09642101FB03F3D31A1B0147
:1042E0003233724AA2FB03235B0903F00F027B689F
:1042F0001B6842449A60D0E0FEF780FFB860BB685C
:104300009A464FF0000BD046D94618EB080349EB0C
:1043100009049846A14618EB0A0849EB0B094FF02F
:1043200000014FF000024FEAC90242EA58724FEA18
:10433000C801884691461AEB08054BEB09067B68D5
:104340005B6819464FF000024FF000034FF0000485
:10435000940044EA91748B001A462346284631465D
:10436000FCF7DAFB03460C461A46504BA3FB02232C
:104370005B094FEA0318BB689B464FF0000CD94617
:10438000E24619EB09034AEB0A049946A24619EBE7
:104390000B094AEB0C0A4FF000014FF000024FEA04
:1043A000CA0242EA59724FEAC901894692461BEB9A
:1043B00009054CEB0A067B685B6819464FF0000262
:1043C0004FF000034FF00004940044EA91748B0016
:1043D0001A46234628463146FCF79EFB03460C4608
:1043E0001A46324BA3FB02135B09642101FB03F362
:1043F000D31A1B0132332D4AA2FB03235B0903F0BE
:10440000F0039844BB689B464FF0000CD946E24647
:1044100019EB09034AEB0A049946A24619EB0B096A
:104420004AEB0C0A4FF000014FF000024FEACA02BB
:1044300042EA59724FEAC901894692461BEB0905C7
:104440004CEB0A067B685B6819464FF000024FF0A0
:1044500000034FF00004940044EA91748B001A4664
:10446000234628463146FCF757FB03460C461A46BE
:104470000E4BA3FB02135B09642101FB03F3D31A68
:104480001B013233094AA2FB03235B0903F00F022D
:104490007B681B6842449A60FFE700BF1437BD4643
:1044A000BDE8F08F00100140001401401F85EB5162
:1044B00080B485B000AF0346FB800023FB60B7F9F2
:1044C0000630842B05D0B7F90620FB68134403336C
:1044D000FB60FB6818461437BD465DF8047B7047E7
:1044E00080B500AF00F0DAFA0023184680BDF0B5C1
:1044F00089B004AF786039607B685B69002B20D09D
:104500007B689B69002B1CD07B685C687B681D689E
:104510007B681E697B68B3F908301846FFF7C8FF4F
:1045200001467B685B697A68926902920193009107
:104530003B6832462946204600F0EDF80346FB6012
:104540001CE07B685C687B681D687B681B699EB2A9
:104550007B68B3F908301846FFF7AAFF024607F157
:104560000C03019300923B6832462946204600F036
:104570002CF90346012B01D0002300E0FB6818460C
:104580001437BD46F0BD80B584B000AF78607B685D
:10459000FB60FB68002B01D0FB6800E0012318469C
:1045A00000F048FA002318461037BD4680BD80B49D
:1045B00083B000AF78607B6803F108027B685A60C3
:1045C0007B684FF0FF329A607B6803F108027B68DA
:1045D000DA607B6803F108027B681A617B6800225D
:1045E0001A6000BF0C37BD465DF8047B704780B48D
:1045F00083B000AF78607B6800221A6100BF0C377F
:10460000BD465DF8047B704780B485B000AF78602C
:1046100039607B685B68FB603B68FA685A60FB68DE
:104620009A683B689A60FB689B683A685A60FB68C6
:104630003A689A603B687A681A617B681B685A1C02
:104640007B681A6000BF1437BD465DF8047B704775
:1046500080B485B000AF786039603B681B68BB6090
:10466000BB68B3F1FF3F03D17B681B69FB600CE0C3
:104670007B680833FB6002E0FB685B68FB60FB68FB
:104680005B681B68BA689A42F6D2FB685A683B6856
:104690005A603B685B683A689A603B68FA689A605F
:1046A000FB683A685A603B687A681A617B681B68E5
:1046B0005A1C7B681A6000BF1437BD465DF8047B46
:1046C000704780B485B000AF78607B681B69FB6081
:1046D0007B685B687A6892689A607B689B687A6896
:1046E00052685A60FB685B687A689A4203D17B68BB
:1046F0009A68FB685A607B6800221A61FB681B6835
:104700005A1EFB681A60FB681B6818461437BD46C2
:104710005DF8047B704780B58EB004AFF860B96077
:104720007A603B607B6B002B09D14FF0500383F321
:104730001188BFF36F8FBFF34F8F3B62FEE7BB6BF8
:10474000002B09D14FF0500383F31188BFF36F8F13
:10475000BFF34F8FFB61FEE754233B613B69542B52
:1047600009D04FF0500383F31188BFF36F8FBFF36D
:104770004F8FBB61FEE73B69BB6B002B1ED07B6B91
:10478000002B1BD0BB6B7B627B6A7A6B1A637B6AE4
:10479000022283F85120002303937B6A029307F1DE
:1047A000140301933B6B00933B687A68B968F8681F
:1047B00000F050F8786A00F0D3F801E000237B6144
:1047C0007B6918462837BD4680BD80B58CB004AFE4
:1047D000F860B9603B601346FB80FB889B0018467D
:1047E00000F0B0FE78617B69002B0ED0542000F001
:1047F000A9FEF861FB69002B03D0FB697A691A6393
:1048000005E0786900F060FF01E00023FB61FB69CF
:10481000002B17D0FB69002283F85120FA8800236F
:104820000393FB690293FB6A0193BB6A00933B68A5
:10483000B968F86800F00EF8F86900F091F8012303
:10484000BB6102E04FF0FF33BB61BB691846203704
:10485000BD4680BD80B588B000AFF860B9607A60B1
:104860003B603B6B1A6B7B6803F18043013B9B0011
:104870001344BB61BB6923F00703BB61BB6903F051
:104880000703002B09D04FF0500383F31188BFF3C7
:104890006F8FBFF34F8F7B61FEE7BB68002B1FD08C
:1048A0000023FB6112E0BA68FB69134419783A6B84
:1048B000FB69134434330A461A70BA68FB6913441F
:1048C0001B78002B06D0FB690133FB61FB690F2BC2
:1048D000E9D900E000BF3B6B002283F8432003E0EE
:1048E0003B6B002283F83420BB6A062B01D90623D8
:1048F000BB623B6BBA6ADA623B6BBA6A5A643B6B67
:1049000000229A643B6B04331846FFF770FE3B6B42
:1049100018331846FFF76BFE3B6B3A6B1A61BB6AA4
:10492000C3F107023B6B9A613B6B3A6B5A623B6B7C
:104930000022DA643B6B002283F850203A68F96861
:10494000B86900F0FDFB02463B6B1A60FB6A002B66
:1049500002D0FB6A3A6B1A6000BF2037BD4680BDAB
:1049600080B582B000AF786000F010FD2A4B1B6864
:104970000133294A1360294B1B68002B09D1274AB0
:104980007B681360244B1B68012B10D100F0B8FA30
:104990000DE0234B1B68002B09D1204B1B68DA6A02
:1049A0007B68DB6A9A4202D81C4A7B6813601D4B05
:1049B0001B6801331B4A13607B68DB6A01229A4043
:1049C000194B1B681343184A13607B68DA6A134655
:1049D0009B0013449B00154A1A447B680433194614
:1049E0001046FFF711FE00F0FFFC0D4B1B68002B7B
:1049F0000ED00A4B1B68DA6A7B68DB6A9A4207D2E0
:104A00000B4B4FF080521A60BFF34F8FBFF36F8F85
:104A100000BF0837BD4680BD58050020580400205F
:104A20006405002074050020600500205C0400205F
:104A300004ED00E080B584B000AF78600023FB6037
:104A40007B68002B16D0134B1B68002B09D04FF04E
:104A5000500383F31188BFF36F8FBFF34F8FBB6099
:104A6000FEE700F079F80021786800F003FB00F021
:104A700081F8F860FB68002B07D1074B4FF080529C
:104A80001A60BFF34F8FBFF36F8F00BF1037BD4663
:104A900080BD00BF8005002004ED00E080B58AB035
:104AA00004AF0023BB6000237B603A46391D07F149
:104AB00008031846FCF7B0F939687B68BA680292B7
:104AC00001930023009300230A461D491D48FFF768
:104AD00022FE02461C4B1A601B4B1B68002B02D0A7
:104AE00001237B6101E000237B617B69012B15D1F0
:104AF0004FF0500383F31188BFF36F8FBFF34F8FD5
:104B00003B61124B4FF0FF321A60114B01221A60C9
:104B1000104B00221A6000F09BFB0DE07B69B3F1A3
:104B2000FF3F09D14FF0500383F31188BFF36F8F1C
:104B3000BFF34F8FFB60FEE700BF1837BD4680BD57
:104B4000E0730008D14E00087C05002078050020A5
:104B5000640500205C05002080B400AF044B1B6896
:104B60000133034A136000BFBD465DF8047B704704
:104B70008005002080B584B000AF0023FB600023D7
:104B8000BB60414B1B68002B09D14FF0500383F3EE
:104B90001188BFF36F8FBFF34F8F3B60FEE700F0CC
:104BA000F5FB394B1B68013B374A1360364B1B68DA
:104BB000002B61D1354B1B68002B5DD02EE0344BB0
:104BC000DB68DB68FB60FB6818331846FFF779FD8C
:104BD000FB6804331846FFF774FDFB68DB6A0122AB
:104BE0009A402C4B1B6813432A4A1360FB68DA6A0D
:104BF00013469B0013449B00274A1A44FB68043366
:104C000019461046FFF700FDFB68DA6A234B1B6864
:104C1000DB6A9A4202D3224B01221A601C4B1B68AA
:104C2000002BCCD1FB68002B01D000F003FA1D4B08
:104C30001B687B607B68002B10D000F037F80346C0
:104C4000002B02D0164B01221A607B68013B7B606F
:104C50007B68002BF1D1134B00221A60104B1B68AC
:104C6000002B09D00123BB600F4B4FF080521A601C
:104C7000BFF34F8FBFF36F8F00F0B6FBBB681846D2
:104C80001037BD4680BD00BF8005002058050020BC
:104C900018050020600500205C0400205804002056
:104CA0006C0500206805002004ED00E080B586B0AA
:104CB00000AF00237B614E4B1B68002B40F08780C8
:104CC0004C4B1B6801333B614A4A3B6913603B69AB
:104CD000002B1FD1484B1B681B68002B09D04FF0DD
:104CE000500383F31188BFF36F8FBFF34F8F3B6087
:104CF000FEE7414B1B68FB60404B1B683E4A13605C
:104D00003E4AFB6813603E4B1B6801333C4A13600C
:104D100000F090F93B4B1B683A699A4248D3364BF6
:104D20001B681B68002B04D1364B4FF0FF321A6012
:104D30003EE0314B1B68DB68DB68BB60BB685B68CF
:104D40007B603A697B689A4203D22E4A7B68136083
:104D50002EE0BB6804331846FFF7B3FCBB689B6AC0
:104D6000002B04D0BB6818331846FFF7AAFCBB68B9
:104D7000DB6A01229A40244B1B681343224A1360CA
:104D8000BB68DA6A13469B0013449B001F4A1A440F
:104D9000BB68043319461046FFF736FCBB68DA6A75
:104DA0001B4B1B68DB6A9A42B9D301237B61B6E7D0
:104DB000174B1B68DA6A154913469B0013449B0086
:104DC0000B441B68012B07D901237B6104E0114BC5
:104DD0001B6801330F4A13600F4B1B68002B01D077
:104DE00001237B617B6918461837BD4680BD00BF33
:104DF000800500205C05002010050020140500201F
:104E00007005002078050020600500205C0400206B
:104E100058040020680500206C05002080B487B08D
:104E200000AF264B1B68002B03D0254B01221A60D4
:104E30003EE0234B00221A60224B1B68FB60FB689C
:104E4000B3FA83F3FB72FB7AC3F11F037B611E4944
:104E50007A6913469B0013449B000B441B68002B8C
:104E600009D14FF0500383F31188BFF36F8FBFF365
:104E70004F8F7B60FEE77A6913469B0013449B00CB
:104E8000114A13443B613B695B685A683B695A604D
:104E90003B695A683B6908339A4204D13B695B68B5
:104EA0005A683B695A603B695B68DB68074A136074
:104EB00000BF1C37BD465DF8047B704780050020AD
:104EC0006C050020600500205C04002058040020D0
:104ED00080B582B000AF786000F052F8064B1B68D6
:104EE000012BF9D9054B4FF080521A60BFF34F8F59
:104EF000BFF36F8FF0E700BF5C04002004ED00E01B
:104F000080B582B000AF00237B600CE07A68134666
:104F10009B0013449B00124A13441846FFF747FBBB
:104F20007B6801337B607B68062BEFD90D48FFF768
:104F30003EFB0D48FFF73BFB0C48FFF738FB0C48E6
:104F4000FFF735FB0B48FFF732FB0B4B054A1A60A6
:104F50000A4B054A1A6000BF0837BD4680BD00BF36
:104F60005C040020E8040020FC0400201805002058
:104F70002C05002044050020100500201405002009
:104F800080B582B000AF19E000F000FA0F4BDB688B
:104F9000DB687B607B6804331846FFF792FB0C4BA1
:104FA0001B68013B0A4A13600A4B1B68013B094A14
:104FB000136000F019FA786800F00EF8054B1B68D2
:104FC000002BE1D100BF0837BD4680BD2C05002075
:104FD000580500204005002080B584B000AF7860FF
:104FE0007B6893F85130002B08D17B681B6B184607
:104FF00000F06AFB786800F067FB17E07B6893F8C5
:105000005130012B03D1786800F05EFB0EE07B6825
:1050100093F85130022B09D04FF0500383F31188DD
:10502000BFF36F8FBFF34F8FFB60FEE700BF1037FA
:10503000BD4680BD80B483B000AF0C4B1B681B68BD
:10504000002B04D10A4B4FF0FF321A6008E0074BE7
:105050001B68DB68DB687B607B685B68044A136005
:1050600000BF0C37BD465DF8047B7047100500207B
:105070007805002080B584B000AF78603960294B96
:105080001B68FB60284B1B6804331846FFF719FBAD
:105090000346002B0BD1244B1B68DB6A012202FA6A
:1050A00003F3DA43214B1B681340204A13607B68EB
:1050B000B3F1FF3F0AD13B68002B07D01A4B1B68A6
:1050C000043319461A48FFF79FFA26E0FA687B680E
:1050D0001344BB60144B1B68BA685A60BA68FB681B
:1050E0009A4209D2134B1A680F4B1B6804331946B6
:1050F0001046FFF7ADFA10E00F4B1A680A4B1B6819
:10510000043319461046FFF7A3FA0C4B1B68BA6824
:105110009A4202D2094ABB68136000BF1037BD46ED
:1051200080BD00BF5C050020580400206005002001
:1051300044050020140500201005002078050020FB
:1051400080B485B000AFF860B9607A60FB68043B5A
:10515000FB60FB684FF080721A60FB68043BFB60E9
:10516000BB6823F00102FB681A60FB68043BFB602C
:105170000C4AFB681A60FB68143BFB607A68FB68AA
:105180001A60FB68043BFB60FB686FF002021A6068
:10519000FB68203BFB60FB6818461437BD465DF892
:1051A000047B7047A951000880B485B000AF00238C
:1051B0007B60114B1B68B3F1FF3F09D04FF05003E8
:1051C00083F31188BFF36F8FBFF34F8FFB60FEE750
:1051D0004FF0500383F31188BFF36F8FBFF34F8FEE
:1051E000BB6000BF7B68002BFCD000BF1437BD46FE
:1051F0005DF8047B704700BF0C0000200000000039
:10520000074B19680868B0E8F04F80F30988BFF3CE
:105210006F8F4FF0000080F311887047AFF300806C
:105220005804002000BF00BF08480068006880F3F1
:1052300008884FF0000080F3148862B661B6BFF3AF
:105240004F8FBFF36F8F00DF00BF00BF08ED00E09E
:1052500080B586B000AF444B1B68444A934209D1E5
:105260004FF0500383F31188BFF36F8FBFF34F8F5D
:105270003B61FEE73C4B1B683D4A934209D14FF02E
:10528000500383F31188BFF36F8FBFF34F8FFB6021
:10529000FEE7384B7B617B691B78DBB27B607B6907
:1052A000FF221A707B691B78DBB2FB70FB78DBB2E4
:1052B00003F05003DAB2304B1A70304B07221A60F9
:1052C00009E02E4B1B68013B2C4A1360FB78DBB2D4
:1052D0005B00DBB2FB70FB78DBB203F08003802B5A
:1052E000EFD0264B1B68C3F10703042B09D04FF006
:1052F000500383F31188BFF36F8FBFF34F8FBB60F1
:10530000FEE71E4B1B681B021C4A13601B4B1B68ED
:1053100003F4E063194A13607B68DAB27B691A70A0
:10532000174B1B68164A43F470031360144B1B6839
:10533000134A43F07043136000F0D6F8114B00227B
:105340001A6000F0F5F8104B1B680F4A43F0404319
:105350001360FFF769FFFFF761FDFFF725FF0023EB
:1053600018461837BD4680BD00ED00E071C20F4100
:1053700070C20F4100E400E0840500208805002091
:1053800020ED00E00C00002034EF00E080B483B09A
:1053900000AF4FF0500383F31188BFF36F8FBFF35B
:1053A0004F8F7B600E4B1B6801330D4A13600C4B13
:1053B0001B68012B0ED10B4B1B68DBB2002B09D0F5
:1053C0004FF0500383F31188BFF36F8FBFF34F8FFC
:1053D0003B60FEE700BF0C37BD465DF8047B7047BD
:1053E0000C00002004ED00E080B483B000AF114B4E
:1053F0001B68002B09D14FF0500383F31188BFF3D2
:105400006F8FBFF34F8F7B60FEE70A4B1B68013B3A
:10541000084A1360074B1B68002B04D100233B6034
:105420003B6883F3118800BF0C37BD465DF8047BF1
:10543000704700BF0C0000200000000000000000CA
:10544000EFF30980BFF36F8F154B1A681EF0100F32
:1054500008BF20ED108A20E9F04F10602DE9090007
:105460004FF0500080F31188BFF34F8FBFF36F8F61
:10547000FFF7D4FC4FF0000080F3118809BC1968D5
:105480000868B0E8F04F1EF0100F08BFB0EC108AAB
:1054900080F30988BFF36F8F704700BFAFF30080C0
:1054A0005804002000BF00BF80B582B000AF4FF0AD
:1054B000500383F31188BFF36F8FBFF34F8F7B606F
:1054C000FFF7F4FB0346002B03D0064B4FF080524E
:1054D0001A6000233B603B6883F3118800BF0837E4
:1054E000BD4680BD04ED00E080B400AF0B4B002250
:1054F0001A600B4B00221A600A4B1B680A4AA2FB77
:1055000003239B09094A013B1360044B07221A60DD
:1055100000BFBD465DF8047B704700BF10E000E0AF
:1055200018E000E000000020D34D621014E000E01D
:10553000DFF80C00016841F470010160704700BFA2
:1055400088ED00E080B58AB000AF78600023FB6191
:10555000FFF702FB574B1B68002B01D100F00CF941
:10556000554B1A687B681340002B40F08C807B6899
:10557000002B1CD008227B6813447B607B6803F0FF
:105580000703002B13D07B6823F0070308337B60ED
:105590007B6803F00703002B09D04FF0500383F31F
:1055A0001188BFF36F8FBFF34F8F7B61FEE77B687E
:1055B000002B68D0414B1B687A689A4263D8404BF5
:1055C0003B623F4B1B687B6204E07B6A3B627B6A09
:1055D0001B687B627B6A5B687A689A4203D97B6A44
:1055E0001B68002BF1D1334B1B687A6A9A424AD070
:1055F0003B6A1B6808221344FB617B6A1A683B6A9A
:105600001A607B6A5A687B68D21A08235B009A4248
:105610001ED97A6A7B681344BB61BB6903F0070338
:10562000002B09D04FF0500383F31188BFF36F8F25
:10563000BFF34F8F3B61FEE77B6A5A687B68D21AE3
:10564000BB695A607B6A7A685A60B86900F0F6F8FC
:105650001A4B1A687B6A5B68D31A184A1360174B97
:105660001A68184B1B689A4203D2144B1B68154AE0
:1056700013607B6A5A68104B1B681A437B6A5A6036
:105680007B6A00221A60FFF775FAFB6903F00703D3
:10569000002B09D04FF0500383F31188BFF36F8FB5
:1056A000BFF34F8FFB60FEE7FB6918462837BD4606
:1056B00080BD00BF94410020A041002098410020FF
:1056C0008C4100209C41002080B586B000AF7860FE
:1056D0007B687B617B68002B46D008235B427A693C
:1056E00013447B617B693B613B695A68204B1B68B3
:1056F0001340002B09D14FF0500383F31188BFF3FF
:105700006F8FBFF34F8FFB60FEE73B691B68002B79
:1057100009D04FF0500383F31188BFF36F8FBFF3AD
:105720004F8FBB60FEE73B695A68114B1B68134003
:10573000002B19D03B691B68002B15D13B695A68B7
:105740000B4B1B68DB431A403B695A60FFF704FAB6
:105750003B695A68074B1B681344064A1360386953
:1057600000F06CF8FFF706FA00BF1837BD4680BDA1
:10577000A04100209841002080B485B000AF4FF4D4
:105780007053BB60274BFB60FB6803F00703002BE3
:105790000CD0FB680733FB60FB6823F00703FB605A
:1057A000BA68FB68D31A1F4A1344BB60FB687B606E
:1057B0001D4A7B6813601C4B00225A607B68BA68E4
:1057C0001344FB600822FB689B1AFB60FB6823F014
:1057D0000703FB60FB68154A1360144B1B6800222B
:1057E0005A60124B1B6800221A607B683B603B6862
:1057F000FA68D21A3B685A600C4B1A683B681A6008
:105800003B685B680A4A13603B685B68094A13603F
:10581000094B4FF000421A6000BF1437BD465DF8D7
:10582000047B70478C0500208C41002094410020AF
:105830009C41002098410020A041002080B485B008
:1058400000AF7860284BFB6002E0FB681B68FB60E0
:10585000FB681B687A689A42F7D8FB68BB60FB68F4
:105860005B68BA6813447A689A4208D1FB685A6840
:105870007B685B681A44FB685A60FB687B607B68E6
:10588000BB607B685B68BA681A44FB681B689A4215
:1058900018D1FB681A68154B1B689A420DD07B68BB
:1058A0005A68FB681B685B681A447B685A60FB682F
:1058B0001B681A687B681A6008E00C4B1A687B68E2
:1058C0001A6003E0FB681A687B681A60FA687B68F4
:1058D0009A4202D0FB687A681A6000BF1437BD464E
:1058E0005DF8047B704700BF8C410020944100208C
:1058F000014B1868704700BF1000002070B50D4EB6
:105900000D4CA41BA4100025A54209D10B4E0C4C34
:1059100001F046FDA41BA4100025A54205D170BDD1
:1059200056F8253098470135EEE756F82530984768
:105930000135F2E738760008387600083876000836
:105940003C76000810B5431E0A44914200D110BDB8
:1059500011F8014B03F8014FF7E702440346934265
:1059600000D1704703F8011BF9E72DE9FF4755EC1B
:10597000104B0D9FDDF830A0002D0E4691461946C4
:10598000B8BF22462B4627F02007BBBF05F10043D6
:105990001D4600232D23B8BF1446462F0B7004D09C
:1059A000452F00D10136022100E0032103AB019312
:1059B00002AB00933246534645EC104B00F0ACFB73
:1059C000472F804602D119F0010F26D0462F08EB51
:1059D000060911D198F80030302B0AD1002200239B
:1059E00020462946FBF728F818B9C6F10106CAF87F
:1059F0000060DAF80030994400220023204629464E
:105A0000FBF71AF838B93022039B4B4505D2591CD5
:105A100003911A70F8E7CDF80C90039B0E9AA3EB54
:105A200008034046136004B0BDE8F087F7B50029CD
:105A30000446BABF49422D232B23092904F8022B1F
:105A4000437020DD0DF107031F460A2691FBF6F592
:105A500006FB15113031092D03F8011C03F1FF324B
:105A6000294609DC3031023B02F8011CBB422246C8
:105A700004D3101A03B0F0BD1346E7E713F8012B67
:105A800004F8012BF2E7302319448370021DC17022
:105A9000EFE700002DE9F04F8DB00C46DDF858809F
:105AA00016461F46054601F0EFF8036804931846B2
:105AB000FAF796FB00230A93D8F8003005900733D5
:105AC00023F0070303F1080294F818A0D4F800B0FB
:105AD000C8F80020D3E90023C4E91223D4E91289CD
